{
  "contractName": "Lockdrop",
  "abi": [
    {
      "inputs": [
        {
          "internalType": "uint256",
          "name": "startTime",
          "type": "uint256"
        }
      ],
      "payable": false,
      "stateMutability": "nonpayable",
      "type": "constructor"
    },
    {
      "anonymous": false,
      "inputs": [
        {
          "indexed": true,
          "internalType": "uint256",
          "name": "eth",
          "type": "uint256"
        },
        {
          "indexed": true,
          "internalType": "uint256",
          "name": "duration",
          "type": "uint256"
        },
        {
          "indexed": false,
          "internalType": "address",
          "name": "lock",
          "type": "address"
        },
        {
          "indexed": false,
          "internalType": "address",
          "name": "introducer",
          "type": "address"
        }
      ],
      "name": "Locked",
      "type": "event"
    },
    {
      "constant": true,
      "inputs": [],
      "name": "LOCK_DROP_PERIOD",
      "outputs": [
        {
          "internalType": "uint256",
          "name": "",
          "type": "uint256"
        }
      ],
      "payable": false,
      "stateMutability": "view",
      "type": "function"
    },
    {
      "constant": true,
      "inputs": [],
      "name": "LOCK_END_TIME",
      "outputs": [
        {
          "internalType": "uint256",
          "name": "",
          "type": "uint256"
        }
      ],
      "payable": false,
      "stateMutability": "view",
      "type": "function"
    },
    {
      "constant": true,
      "inputs": [],
      "name": "LOCK_START_TIME",
      "outputs": [
        {
          "internalType": "uint256",
          "name": "",
          "type": "uint256"
        }
      ],
      "payable": false,
      "stateMutability": "view",
      "type": "function"
    },
    {
      "constant": false,
      "inputs": [
        {
          "internalType": "uint256",
          "name": "_days",
          "type": "uint256"
        },
        {
          "internalType": "address",
          "name": "_introducer",
          "type": "address"
        }
      ],
      "name": "lock",
      "outputs": [],
      "payable": true,
      "stateMutability": "payable",
      "type": "function"
    }
  ],
  "bytecode": "0x608060405234801561001057600080fd5b506040516103323803806103328339818101604052602081101561003357600080fd5b5051600081905562278d00016001556102e1806100516000396000f3fe60806040526004361061003f5760003560e01c806315f2e2f714610044578063396214661461006b57806366dfbfb4146100805780638cf0cb55146100ae575b600080fd5b34801561005057600080fd5b506100596100c3565b60408051918252519081900360200190f35b34801561007757600080fd5b506100596100c9565b6100ac6004803603604081101561009657600080fd5b50803590602001356001600160a01b03166100cf565b005b3480156100ba57600080fd5b506100596101ea565b60005481565b60015481565b6000544210156100de57600080fd5b6001544211156100ed57600080fd5b3332146100f957600080fd5b81601e14806101085750816064145b8061011457508161012c145b806101205750816103e8145b61012957600080fd5b42620151808302013461013b57600080fd5b60003490506000813384604051610151906101f1565b6001600160a01b03909216825260208201526040805191829003019082f080158015610181573d6000803e3d6000fd5b509050905081816001600160a01b031631101561019a57fe5b604080516001600160a01b038084168252861660208201528151879285927f1f8f04eebd96e2dab57d8611613f0e859a7e1b4bc41c7831d74435a3ee9e42fe929081900390910190a35050505050565b62278d0081565b60af806101fe8339019056fe60806040526040516100af3803806100af83398181016040526040811015602557600080fd5b508051602090910151600091909155600155606a806100456000396000f3fe60806040526001544211801560195760018114601e576032565b600080fd5b60008060008030316000545af18015601957505b5000fea265627a7a72315820d8a4a6d2a1114563bc3e2a1142388ea8f3396b6c218af30df180b571e4a0aa8e64736f6c634300050f0032a265627a7a7231582077cf0233ac861dce0efbdbfd0a154e756a7a505b4768a0a5cf0fe125c83678ae64736f6c634300050f0032",
  "source": "pragma solidity 0.5.15;\n\nimport \"./Lock.sol\";\n\ncontract Lockdrop {\n    // Time constants\n    uint256 public constant LOCK_DROP_PERIOD = 30 days;\n    uint256 public LOCK_START_TIME;\n    uint256 public LOCK_END_TIME;\n\n    // ETH locking events\n    event Locked(\n        uint256 indexed eth,\n        uint256 indexed duration,\n        address lock,\n        address introducer\n    );\n\n    constructor(uint256 startTime) public {\n        LOCK_START_TIME = startTime;\n        LOCK_END_TIME = startTime + LOCK_DROP_PERIOD;\n    }\n\n    /**\n     * @dev        Locks up the value sent to contract in a new Lock\n     * @param      _days         The length of the lock up\n     * @param      _introducer   The introducer of the user.\n     */\n    function lock(uint256 _days, address _introducer)\n        external\n        payable\n        didStart\n        didNotEnd\n    {\n        // Accept External Owned Accounts only\n        require(msg.sender == tx.origin);\n\n        // Accept only fixed set of durations\n        require(_days == 30 || _days == 100 || _days == 300 || _days == 1000);\n        uint256 unlockTime = now + _days * 1 days;\n\n        // Accept non-zero payments only\n        require(msg.value > 0);\n        uint256 eth = msg.value;\n\n        // Create ETH lock contract\n        Lock lockAddr = (new Lock).value(eth)(msg.sender, unlockTime);\n\n        // ensure lock contract has all ETH, or fail\n        assert(address(lockAddr).balance >= eth);\n\n        emit Locked(eth, _days, address(lockAddr), _introducer);\n    }\n\n    /**\n     * @dev        Ensures the lockdrop has started\n     */\n    modifier didStart() {\n        require(now >= LOCK_START_TIME);\n        _;\n    }\n\n    /**\n     * @dev        Ensures the lockdrop has not ended\n     */\n    modifier didNotEnd() {\n        require(now <= LOCK_END_TIME);\n        _;\n    }\n}\n",
  "sourcePath": "/Users/kozysaito/survey/lockdrop-ui/eth-truffle/contracts/Lockdrop.sol",
  "compiler": {
    "name": "solc",
    "version": "0.5.15+commit.6a57276f.Emscripten.clang"
  },
  "schemaVersion": "3.4.3",
  "updatedAt": "2021-09-27T16:45:33.172Z",
  "networkType": "ethereum",
  "devdoc": {
    "methods": {
      "lock(uint256,address)": {
        "details": "Locks up the value sent to contract in a new Lock",
        "params": {
          "_days": "The length of the lock up",
          "_introducer": "The introducer of the user."
        }
      }
    }
  },
  "userdoc": {
    "methods": {}
  }
}